:020000000000fe
:020001000141bb
:02000200028179
:0200030003bc3c
:0200040004f204
:02000500061fd4
:020006000744ad
:02000700085c93
:02000800096885
:020009000a6487
:02000a000b5099
:02000b000c2bbc
:02000c000cf2f4
:02000d000da440
:02000e000e42a0
:02000f000ec819
:020010000f38a7
:020011000f8f4f
:020012000fce0f
:020013000ff3e9
:020014000fffdc
:020015000ff3e7
:020016000fce0b
:020017000f8f49
:020018000f389f
:020019000ec80f
:02001a000e4294
:02001b000da432
:02001c000cf2e4
:02001d000c2baa
:02001e000b5085
:02001f000a6471
:0200200009686d
:02002100085c79
:02002200074491
:02002300061fb6
:0200240004f2e4
:0200250003bc1a
:02002600028155
:02002700014195
:020028000000d6
:020029001ebff8
:02002a001d7f38
:02002b001c4473
:02002c001b0ea9
:02002d0019e1d7
:02002e0018bcfc
:02002f0017a414
:02003000169820
:02003100159c1c
:0200320014b008
:0200330013d5e3
:02003400130ea9
:02003500125c5b
:0200360011bef9
:0200370011387e
:0200380010c8ee
:02003900107144
:02003a00103282
:02003b00100da6
:02003c001000b2
:02003d00100da4
:02003e0010327e
:02003f0010713e
:0200400010c8e6
:02004100113874
:0200420011beed
:02004300125c4d
:02004400130e99
:0200450013d5d1
:0200460014b0f4
:02004700159c06
:02004800169808
:0200490017a4fa
:02004a0018bce0
:02004b0019e1b9
:02004c001b0e89
:02004d001c4451
:02004e001d7f14
:02004f001ebfd2
:00000001ff
